S01E00005443204C69746520447269766572204578616D706C652E7372656349
S214400000B8064020ED014000E9014000E90140000B
S214400010E9014000E9014000E9014000000000001D
S214400020000000000000000000000000E901400061
S214400030E901400000000000E9014000E9014000FD
S214400040E9014000E9014000E9014000E9014000C3
S214400050E9014000E9014000E9014000E9014000B3
S214400060E901400000000000E9014000E9014000CD
S214400070E9014000E9014000E9014000E901400093
S214400080E9014000E9014000E9014000E901400083
S214400090E9014000E9014000E9014000E901400073
S2144000A0E9014000E9014000E9014000E901400063
S2144000B0E9014000E9014000E9014000E901400053
S2144000C0E9014000E9014000E9014000E901400043
S2144000D0E9014000E9014000E9014000E901400033
S2144000E0E9014000E9014000E9014000E901400023
S2144000F0E9014000E9014000E901400035084000C0
S214400100E9014000E9014000E9014000E901400002
S214400110E9014000E9014000000000000000000046
S214400120E9014000E9014000E9014000E9014000E2
S214400130E9014000E9014000E9014000E9014000D2
S214400140E9014000E9014000E9014000E9014000C2
S214400150E9014000E9014000E9014000E9014000B2
S214400160E9014000E901400010B5054C237833B959
S214400170044B13B10448AFF300800123237010BD35
S2144001806400402000000000D42240000C4B43B1E5
S2144001900C480D4910B5AFF300800C48036823B9EE
S2144001A010BD0A48036833B97047094B002BF7D097
S2144001B0BDE810401847064B002BF5D0184700BF47
S2144001C000000000D422400068004020D4224000B6
S2144001D00000000008B5024B9847024B984708BD00
S2144001E069034000A90C4000FEE7000008B5104B2C
S2144001F0104A9A4209D00E4B0E4A03E01168196025
S214400200043304320C498B42F8D30C4B02E00022F4
S2144002101A6004330A4A9342F9D30A4A0A4B23F037
S2144002207F039360094B9847094B9847FEE700BF0A
S21440023000004020D422400064004020640040205B
S214400240B800402000ED00E00000400039104000BB
S214400250D10A4000064B1A6F42F400721A675A6F72
S21440026022F400725A674FF400725A60704700BF1B
S21440027000120E40104BD3F8083113F4004F04D14F
S2144002804FF400420C4BC3F800210B4BD3F8083117
S21440029013F4803F04D14FF48032074BC3F800215B
S2144002A0054BD3F8083113F4003F04D14FF4003225
S2144002B0014BC3F80021704700060E4008B50248BF
S2144002C0024B984708BD00BF10E000E0ED03400039
S2144002D00F4B1A6F22F400121A675A6F22F400125C
S2144002E05A674FF400125A600A4AD2F8143143F063
S2144002F01003C2F81431084B1A6F42F010021A6706
S2144003005A6F42F010025A6710225A60704700BF78
S214400310000E0E400080084000100E40044B9B69C3
S21440032013F4804F03D14FF48042014B1A6170475B
S21440033000060E4008B5064B9847064B9847064BB6
S2144003409847024605490648064B984708BD00BFF1
S2144003501D034000D1024000690A40000080024070
S214400360940040205105400008B5104B9847104B6C
S2144003709B6913F4806F03D14FF480620C4B1A6173
S2144003800C4A536843F4004353600B4B4FF400024F
S2144003901A631A611A60094B9847094B9847094BEC
S2144003A09847094B9847094B984708BD1D0640009B
S2144003B000060E4050180E40000E0E4075024000DB
S2144003C05502400081074000BD0240003503400012
S2144003D0EFF31083036072B6BFF35F8F7047BFF3CF
S2144003E05F8F036883F310887047000008B5024BA0
S2144003F01860024B984708BD8000402035074000F3
S21440040010B5044B1C68044B984701462046034BE6
S214400410984710BD80004020090640004107400034
S21440042070B5164604460D46002818BF002914BF6E
S2144004300120002034220449044B98472368324662
S21440044029462046984770BD68214000C5054000B3
S21440045070B5164604460D46002818BF002914BF3E
S214400460012000203D220449044B984763683246E9
S21440047029462046984770BD68214000C505400083
S214400480F8B5164605460F46002818BF002902D084
S2144004900ABB002000E00020F1221049104B98478C
S2144004A005F1080420460F4B98470028F8D0002551
S2144004B0795D20460C4B984720460A4B98470028C3
S2144004C0FAD00135B542F3D32046084B984700286A
S2144004D0FAD02846F8BD0120DEE700BF7C21400068
S2144004E0C5054000F1094000A9094000190A40002E
S2144004F02DE9F041174605468846002818BF0029D2
S21440050002D0D2B9002000E000204FF486720C4999
S2144005100C4B9847002605F1080420460A4B98479E
S2144005200028F8D02046094B984708F806000136C0
S214400530BE42F0D33046BDE8F0810120E5E700BF7B
S2144005407C214000C5054000410A4000CD094000DE
S21440055038B504460D46002818BF002914BF0120B0
S214400560002034220749084B9847294604F10800E2
S214400570064B9847034618B9054A6260054A22600A
S214400580184638BD7C214000C50540003D09400066
S214400590F10440008104400010B504465322064949
S2144005A0003018BF0120054B984704F10800044B63
S2144005B09847002010BD00BF7C214000C505400084
S2144005C07509400000B900BE704700000346064A61
S2144005D0126822B1044A1068034413607047034906
S2144005E0014A1160F6E700BF84004020B80640206C
S2144005F04FF0FF3070474FF400534B600020704779
S21440060001207047002070474FF4967303FB00F0BC
S2144006104FF47A7303FB00F07047000000B583B0D8
S21440062001A80E4B98470E4AD2F8883043F4700320
S214400630C2F88830BFF34F8FBFF36F8F01A8094BC6
S2144006409847094A136823F4706343F4A063136021
S214400650064B984703B05DF804FB00BFD10340004B
S21440066000ED00E0DF034000000C0E400D074000A8
S2144006700E490A6A22F002020D4B13430B620B4BE3
S2144006809B6E13F0010FFAD0084B196A094A0A43C9
S2144006901A62996A084A0A409A62084A9A62034B62
S2144006A09B6E13F0020FFAD0704700BF00060E4054
S2144006B0013E370000003701FFFF00F8013F1820D9
S2144006C0114A136B23F0700313630F4B9B6E13F0AA
S2144006D0080FFAD00C4A136B23F4407343F480732C
S2144006E01363094B9B6E13F0080FFAD0064A136B40
S2144006F023F0030343F002031363034B9B6E13F094
S214400700080FFAD0704700BF00060E4008B5024BEF
S2144007109847024B984708BD71064000C106400006
S214400720034B6FF07F425A6005221A60704700BF45
S21440073010E000E008B5014B984708BD210740008F
S214400740080E0DE00D4B6FF07F40586098600B4BE5
S2144007501B6813F4803FFAD001F17F410131104607
S214400760431EDAB20028EDD1044B59609960034B22
S2144007701B6813F4803FFAD0704700BF10E000E0DB
S214400780154B0122C3F8C0200F22C3F8C42044F200
S21440079005025A604FF4FA72DA61102159626FF01E
S2144007A0100199620D495964DA650D4AC3F88420F0
S2144007B040F24A22C3F89C2000200A4B18600A4B9D
S2144007C04FF40042C3F88420BFF34F8FBFF36F8FC0
S2144007D0C3F884215A6070470040014006C4000CAC
S2144007E003C00C00A000402000E100E0022902D82F
S2144007F0890105234350704770B50C46164605469A
S2144008006E220849003018BF0120022C88BF002005
S214400810054B9847054B9D4200D070BD044B43F8AE
S2144008202460FAE798214000C5054000004001409A
S214400830A000402008B5044B1B6A04481840044BEF
S2144008401B6803B1984708BD00400140FF00070001
S214400850A000402010B5044640F22B220549003047
S21440086018BF0120044B984704482044C0F3873003
S21440087010BD00BFB8214000C505400000C0FDBF08
S21440088010B5044640F287220E49003018BF0120BA
S2144008900D4B984720460D4B9847002343B140F2F6
S2144008A0912208490020084B98470023184610BD5F
S2144008B003EB43018A0006498A5C9042F6D0013336
S2144008C0DBB2EBE7B8214000C505400055084000C4
S2144008D0AC21400010B5044640F29E22114900303B
S2144008E018BF0120104B98472046104B9847104B96
S2144008F0C4F8E430002363606362A362AC222260E3
S2144009004FF4807222604FF40022226000EB4000D9
S2144009108100084A0A4452686260074A22621846C2
S21440092010BD00BFB8214000C5054000810840000A
S21440093000415355AC21400051000300F8B50C4629
S214400940094E0746BD223146003018BF0120074DEC
S214400950A847BE223146201C18BF0120A8473C604D
S2144009602046034B9847F8BDB8214000C5054000D7
S214400970D508400070B50A4E044640F2051231468E
S214400980003018BF0120074DA847246840F2C72210
S2144009903146201C18BF0120A8475023236070BD55
S2144009A0B8214000C505400038B50C4605464FF412
S2144009B0D4720449003018BF0120034B98472B6877
S2144009C0DC6138BDB8214000C505400010B504467E
S2144009D04FF4DD720449003018BF0120034B98479E
S2144009E023689869C0B210BDB8214000C5054000D4
S2144009F010B5044640F2C3120549003018BF012026
S214400A00044B984723685869C0F3400010BD00BFA8
S214400A10B8214000C505400010B504464FF4E672C4
S214400A200549003018BF0120044B98472368586991
S214400A30C0F3402010BD00BFB8214000C5054000AF
S214400A4010B504464FF4EF720549003018BF012038
S214400A50044B98472368586900F0010010BD00BF5A
S214400A60B8214000C505400000207047044A936BFB
S214400A7003F40003D94301F4000111635363704744
S214400A80000E0E40034B00229A601A6842F00102A4
S214400A901A60704710E000E0014BD86D80B2704796
S214400AA000400140014B186A704700BF00400140BB
S214400AB0014B586980B2704700400140014B98692D
S214400AC080B27047004001400048704780D1F0082F
S214400AD02DE9F0432DED028B83B02F4B98472F4BDB
S214400AE098472F4B984706462E4C2F4A00212046C3
S214400AF02E4B9847022120462D4DA84700212046E0
S214400B00A84701212046A84700253DE0294BC3F8C9
S214400B109850294B984710F0400FFAD0274B9847EB
S214400B200746274B98470446C71BBFB2642303FBC0
S214400B3007F3B3FBF0F307EE903AB8EE678A214B23
S214400B4083ED008A204B9847B0FBF4F007EE900AFE
S214400B50F8EE677A1D4BC3ED007A1D4C17EE900AEF
S214400B60A0478046894618EE100AA047CDE9000106
S214400B7042464B461748184988471848184B9847E6
S214400B804FF47A70174B984705F51675ADB2AE42DE
S214400B90BCD84FF41675B9E7D5014000850A400029
S214400BA0990A4000004001406D0A4000F9074000A5
S214400BB0ED07400000000140A50A4000B10A400091
S214400BC0BD0A4000B0004020C90A4000AC004020AA
S214400BD0910F4000D4214000911040001822400060
S214400BE0791140000104400058B908B50B4611463B
S214400BF01846054B9847002800DB08BD4FF0FF30ED
S214400C0008BD4FF0FF307047610C400001380228A5
S214400C100BD808B50B4611461846054B9847002892
S214400C2000DB08BD4FF0FF3008BD4FF0FF30704787
S214400C30850C400070B50646064D2B680021986826
S214400C40054CA0472B6800215868A047034B1E6000
S214400C5070BD00BF00004020891140008800402041
S214400C6008B5064B1B6833B10A46014692B2184691
S214400C70034B984708BD002008BD00BF88004020B1
S214400C805104400008B5064B1B6833B10A4601467E
S214400C9092B21846034B984708BD002008BD00BFD7
S214400CA0880040202104400010B5044C2046044BE8
S214400CB098472046034B984710BD00BF94004020FD
S214400CC099054000350C400081F0004102E000BF2D
S214400CD083F0004330B54FEA41044FEA430594EAB7
S214400CE0050F08BF90EA020F1FBF54EA000C55EAF2
S214400CF0020C7FEA645C7FEA655C00F0E2804FEAC3
S214400D005454D4EB5555B8BF6D420CDD2C4480EAA4
S214400D10020281EA030382EA000083EA010180EAD4
S214400D20020281EA0303362D88BF30BD11F0004F22
S214400D304FEA01314FF4801C4CEA113102D0404258
S214400D4061EB410113F0004F4FEA03334CEA133393
S214400D5002D0524263EB430394EA050F00F0A780AB
S214400D60A4F10104D5F1200E0DDB02FA0EFC22FAA6
S214400D7005F2801841F1000103FA0EF2801843FA9A
S214400D8005F359410EE0A5F120050EF1200E012A8B
S214400D9003FA0EFC28BF4CF0020C43FA05F3C018C9
S214400DA051EBE37101F0004507D54FF0000EDCF142
S214400DB0000C7EEB00006EEB0101B1F5801F1BD3EB
S214400DC0B1F5001F0CD349085FEA30004FEA3C0CEF
S214400DD004F101044FEA445212F5800F80F09A80E5
S214400DE0BCF1004F08BF5FEA500C50F1000041EBE9
S214400DF0045141EA050130BD5FEA4C0C404141EBED
S214400E00010111F4801FA4F10104E9D191F0000F13
S214400E1004BF01460020B1FA81F308BF2033A3F196
S214400E200B03B3F120020CDA0C3208DD02F1140C8D
S214400E30C2F10C0201FA0CF021FA02F10CE002F1C8
S214400E401402D8BFC2F1200C01FA02F120FA0CFCC1
S214400E50DCBF41EA0C019040E41AA2BF01EB04510A
S214400E60294330BD6FEA04041F3C1CDA0C340EDC08
S214400E7004F11404C4F1200220FA04F001FA02F34B
S214400E8040EA030021FA04F345EA030130BDC4F109
S214400E900C04C4F1200220FA02F001FA04F340EAFE
S214400EA00300294630BD21FA04F0294630BD94F0AF
S214400EB0000F83F4801306BF81F480110134013D96
S214400EC04EE77FEA645C18BF7FEA655C29D094EA07
S214400ED0050F08BF90EA020F05D054EA000C04BF85
S214400EE01946104630BD91EA030F1EBF0021002070
S214400EF030BD5FEA545C05D14000494128BF41F00F
S214400F00004130BD14F580043CBF01F5801130BD72
S214400F1001F0004545F0FE4141F470014FF00000FD
S214400F2030BD7FEA645C1ABF194610467FEA655CAE
S214400F301CBF0B46024650EA013406BF52EA033550
S214400F4091EA030F41F4002130BD00BF90F0000F3E
S214400F5004BF0021704730B54FF4806404F132047A
S214400F604FF000054FF0000150E700BF90F0000F33
S214400F7004BF0021704730B54FF4806404F132045A
S214400F8010F0004548BF40424FF000013EE700BF2A
S214400F9042004FEAE2014FEA31014FEA02701FBFBA
S214400FA012F07F4393F07F4F81F06051704792F08C
S214400FB0000F14BF93F07F4F704730B54FF4607406
S214400FC001F0004521F0004120E700BF50EA010251
S214400FD008BF704730B54FF000050AE050EA0102FE
S214400FE008BF704730B511F0004502D5404261EB6E
S214400FF041014FF4806404F132045FEA915C3FF4AF
S214401000DCAE4FF003025FEADC0C18BF03325FEA47
S214401010DC0C18BF033202EBDC02C2F1200300FAFC
S21440102003FC20FA02F001FA03FE40EA0E0021FA21
S21440103002F11444C1E600BF70B50D4E0D4CA41B22
S214401040A4100025A54209D10B4E0C4C01F032F9F4
S214401050A41BA4100025A54205D170BD56F8253026
S21440106098470135EEE756F8253098470135F2E7C0
S214401070C0224000C0224000C0224000C42240009F
S21440108002440346934200D1704703F8011BF9E738
S2144010900FB40A4B13B51C6824B1A36913B9204694
S2144010A000F0DAFA05AB049AA1680193204600F0F6
S2144010B09DFC02B0BDE8104004B0704700004020E0
S2144010C070B50E46054618B183690BB900F0C4FAF0
S2144010D0AB69AC6813B9284600F0BEFA234B9C4275
S2144010E017D16C68A3891B071DD52369DBB1013E68
S2144010F0A36816F8011F013BA360E9B9002B2EDA5E
S21440110022460A21284600F0F5F8013011D00A2080
S21440111070BD174B9C4201D1AC68E3E7154B9C422F
S21440112008BFEC68DEE72146284600F035F900287F
S214401130DDD04FF0FF3070BD002B04DAA269934239
S21440114006DB0A2904D023685A1C22601970CFE7B0
S2144011502246284600F0CEF80130C9D1E9E7236898
S2144011600A205A1C2260187070BD00BF4022400002
S2144011706022400020224000024B01461868FFF7DC
S2144011809FBF00BF0000402000294FF480630CBF83
S2144011900222002200F000B82DE9F7431D46514BCD
S2144011A01E6804460F46904626B1B36913B93046CA
S2144011B000F052FA4C4B9C4252D17468B8F1020F80
S2144011C006D0B8F1010F00F28980002DC0F286806B
S2144011D02146304600F0D6F9616B41B104F1440334
S2144011E0994202D0304600F02DFB00236363002373
S2144011F0A3616360A3891B0603D52169304600F0CE
S21440120021FBA38923F44A6323F00303B8F1020FBA
S214401210A3815DD001AB6A462146304600F0A6FA6F
S214401220A3891843A0812DBB009D284600F002FBF1
S214401230074600284ED1DDF80090A9453CD14FF036
S214401240FF30A38943F00203A3810023A36004F187
S2144012504703236023610123636103B0BDE8F08345
S214401260224B9C4201D1B468A8E7214B9C4208BF60
S214401270F468A3E7002FD8D0B36913B9304600F01E
S214401280EBF9B8F1010F08BFA389276004BF43F00C
S2144012900103A381A389276113F0080065611BD071
S2144012A013F0010018BF6D424FF000031DBFA3604E
S2144012B0A5611846A560D0E7484600F0BBFA074649
S2144012C00028BCD0A38943F08003A3814D46D3E7D2
S2144012D00020B6E7A946F5E7A060BEE74FF0FF302E
S2144012E0BBE700BF00004020402240006022400094
S2144012F020224000F8B50E461446054618B18369CC
S2144013000BB900F0A9F9214B9C422AD16C68A3691D
S214401310A360A3891A072ED5236963B3236920687F
S214401320C01A6369F6B29842374604DB214628461F
S21440133000F028F928BBA368013BA36023685A1C29
S21440134022601E7063690130984204D0A389DB078F
S21440135019D50A2E17D12146284600F013F990B128
S2144013600FE00B4B9C4201D1AC68D0E7094B9C4246
S21440137008BFEC68CBE72146284600F00DF8002869
S214401380CCD04FF0FF373846F8BD00BF4022400073
S2144013906022400020224000324B70B51D68064651
S2144013A00C4625B1AB6913B9284600F055F92E4BCB
S2144013B09C420FD16C68B4F90C309AB215072CD405
S2144013C0D00611D40922326043F04003A3814FF087
S2144013D0FF3070BD254B9C4201D1AC68EBE7244BF7
S2144013E09C4208BFEC68E6E7510712D5616B41B1F5
S2144013F004F14403994202D0304600F023FA002319
S2144014006363A38923F02403A381002363602369D5
S2144014102360A38943F00803A38123694BB9A389BA
S21440142003F42073B3F5007F03D02146304600F026
S214401430C1F9A28912F001030CD00023A3606369AE
S2144014405B42A361236953B9B4F90C3013F08000B2
S214401450BAD170BD920758BF6369A360F2E7002017
S214401460F7E700BF000040204022400060224000D6
S214401470202240008A892DE9F041054610070C4697
S2144014805AD44B68002B05DC0B6C002B02DC00208A
S214401490BDE8F081E66A002EF9D0002312F48052AF
S2144014A02F682B6033D0606DA3895A0705D56368D3
S2144014B0C01A636B0BB1236CC01A00230246E66A5F
S2144014C0216A2846B047431CA38906D129681D29AE
S2144014D04BD82B4ACA40D60747D500226260D9046B
S2144014E02269226004D5421C01D12B6803B960658D
S2144014F0616B2F600029CAD004F14403994202D0A0
S214401500284600F09FF900206063BDE8F081216A1C
S21440151001232846B047411CC6D12B68002BC3D0B8
S2144015201D2B01D0162B01D12F60B0E7A38943F0C5
S2144015304003A381BDE8F0810F69002FA7D0930731
S2144015400E6808BF4B690F6018BF0023A6EB07085C
S2144015508B60B8F1000F9ADD43463A46216AA66A88
S2144015602846B047002807DCA38943F04003A38100
S2144015704FF0FF30BDE8F0810744A8EB0008E8E7ED
S2144015800100402038B50B6905460C46DBB118B162
S21440159083690BB900F060F80C4B9C4209D16C682B
S2144015A0B4F90C307BB121462846BDE83840FFF7F9
S2144015B061BF074B9C4201D1AC68F1E7054B9C42AA
S2144015C008BFEC68ECE7002038BD00BF4022400072
S2144015D06022400020224000014900F0A9B800BF28
S2144015E085154000002310B50446036043608360C1
S2144015F081814366C2810361436183611946082243
S2144016005C30FFF73DFD054B6362054BA362054B1F
S214401610E362054B2462236310BD00BF651F400094
S214401620871F4000BF1F4000E31F400070B54A1EA2
S214401630682555430E4605F1740100F051F90446FD
S21440164040B1002180E842000C30A06005F16802FD
S214401650FFF716FD204670BD836910B5044633BBC0
S2144016608364C3640365124B124A1B6882629842C5
S21440167004BF0123836100F01FF86060204600F03D
S2144016801BF8A060204600F017F80022E060042116
S2144016906068FFF7A7FF01220921A068FFF7A2FFB5
S2144016A002221221E068FFF79DFF0123A36110BDCF
S2144016B01C224000D9154000F8B51C4B1E68B36983
S2144016C0074613B93046FFF7C7FF4836B468736815
S2144016D0013B03D5336833B13668F7E7B4F90C50AD
S2144016E06DB16834F4E704213846FFF79FFF306059
S2144016F00028F1D10C233B6004462046F8BD4FF647
S214401700FF73E3810123A38165662560A56065605C
S21440171025616561A5610822294604F15C00FFF752
S214401720AFFC6563A563A564E564E6E71C2240005C
S2144017302DE9F8438046894600F14804002614B94E
S2144017403046BDE8F883A5686768013F01D5246840
S214401750F5E7AB89012B07D9B5F90E30013303D035
S21440176029464046C84706436835EEE770B50E46FC
S214401770B1F90E10002990B014461D4607DA002332
S2144017802B60B3891A0610D44FF480630EE001AA8A
S21440179000F04EFC0028F2DB029A02F47042A2F5FA
S2144017A000535A425A412A60EEE740230020236005
S2144017B010B070BD8B8973B59D0706460C4607D59D
S2144017C004F14703236023610123636102B070BDC7
S2144017D001AB6A46FFF7CAFF00990546304600F05F
S2144017E07FF848B9B4F90C309A05EFD423F00303D8
S2144017F043F00203A381E3E70D4BB362A389206065
S21440180043F08003A381009B6361019B20615BB131
S214401810B4F90E10304600F01DFC28B1A38923F021
S214401820030343F00103A381A3891D43A581CDE7AC
S214401830D9154000024B0146186800F051B800BF69
S2144018400000402038B50546002945D051F8043CF4
S2144018500C1F002BB8BFE41800F072FC1F4A136838
S214401860104633B9636014602846BDE8384000F03F
S21440187068BCA3420CD921686218934204BF1A6818
S2144018805B68636004BF521822600460ECE713464E
S2144018905A680AB1A242FAD919685818A0420BD120
S2144018A020680144581882421960DDD11068526899
S2144018B05A6001441960D7E702D90C232B60D3E75E
S2144018C0206821188A4204BF11685268626004BFCB
S2144018D0091821605C60C7E738BD00BF8C00402017
S2144018E070B5CD1C25F0030508350C2D38BF0C25EA
S2144018F0002D064601DBA94203D90C2333600020A5
S21440190070BD00F01DFC234A1468214691B9224C54
S21440191023681BB9304600F015FB20602946304648
S21440192000F010FB431C26D10C233360304600F0F9
S21440193008FCE4E70B685B1B1AD40B2B0FD90B6033
S214401940CD50CC18304600F0FCFB04F10B00231DB4
S21440195020F00700C31A1BD05A42E25070BD8C429A
S2144019600DBF63684B686360136018BF0C46E9E7B9
S2144019700C464968CAE7C41C24F00304A04205D0BC
S214401980211A304600F0DEFA0130CDD02560D9E786
S21440199070BD00BF8C004020900040209368013B03
S2144019A0002B10B4936008DA9469A34202DBCBB2F2
S2144019B00A2B02D110BCFFF79DBC1368581C106060
S2144019C01970C8B210BC7047F8B506460F461446A4
S2144019D0D518AC4201D1002007E03A4614F8011B66
S2144019E03046FFF7DBFF431CF3D1F8BD2DE9F04F3F
S2144019F09DB00C4617460393064618B183690BB94B
S214401A00FFF72AFE7C4B9C4257D17468A38918077F
S214401A105DD52369002B5AD00023099320238DF8E7
S214401A20293030238DF82A304FF0010BB846454612
S214401A3015F8013B002B55D1B8EB070A0BD053469F
S214401A403A4621463046FFF7BFFF013000F0C480DB
S214401A50099B5344099398F80030002B00F0BC8053
S214401A6000234FF0FF3204930793059206938DF8B8
S214401A7053301A9305222978604800F011FB05F18F
S214401A800108049B002831D1D90644BF20228DF896
S214401A9053201A0744BF2B228DF853202A782A2A2F
S214401AA02CD0079A00210A20A846013598F8003025
S214401AB0303B092B6DD971B326E0514B9C4201D186
S214401AC0B468A3E74F4B9C4208BFF4689EE72146A4
S214401AD03046FFF761FC00289ED04FF0FF301DB027
S214401AE0BDE8F08F252BA7D0A846A0E7434A801A2A
S214401AF00BFA00F0184304904546BBE7039A111DC5
S214401B0012680391002A01DB079204E0524243F038
S214401B1002030792049398F800302E2B10D198F8C1
S214401B2001302A2B08F1010137D1039B1A1D1B688F
S214401B300392002BB8BF4FF0FF3308F1020805931D
S214401B40314D98F800100322284600F0A9FA40B11B
S214401B504023401B03FA00F0049B0343049308F120
S214401B60010898F8001029488DF82810062208F138
S214401B70010700F095FA002834D0254B03BB039BA1
S214401B80073323F0070308330393099B4B44099319
S214401B904CE700FB0232012186E7002305931846F6
S214401BA00A258846013198F80020303A092A03D998
S214401BB0002BC5D00590C3E705FB00200123F0E7C6
S214401BC003AB00932246134B04A93046AFF3008084
S214401BD0B0F1FF3F8146D8D1A3895B063FF57DAF84
S214401BE009987CE703AB009322460A4B04A930468B
S214401BF000F088F8ECE700BF40224000802240001A
S214401C006022400020224000862240008A22400077
S214401C1000000000C91940002DE9F04791461F46D4
S214401C208A680B69DDF820809342B8BF1346C9F82E
S214401C30003091F8432006460C4612B10133C9F8ED
S214401C4000302368990642BFD9F800300233C9F8FD
S214401C500030256815F0060507D104F1190AE36837
S214401C60D9F800209B1A9D4229DB94F8433022681D
S214401C70003318BF012392062ED404F1430239469E
S214401C803046C047013021D02368E568D9F80020A7
S214401C9003F00603042B08BFAD1AA36822690CBFE5
S214401CA025EAE57500259342C4BF9B1AED184FF010
S214401CB000091A344D451BD10020BDE8F0870123AA
S214401CC0524639463046C047013003D14FF0FF30C8
S214401CD0BDE8F0870135C2E7E1185A1C302081F88C
S214401CE04300224494F8451082F843100233C4E778
S214401CF00123224639463046C0470130E6D009F136
S214401D000109D7E72DE9F04317460A7E85B06E2ACB
S214401D10984606460C460C9B01F1430E00F0BC80EC
S214401D201AD8632A2ED00AD8002A00F0C880582A2B
S214401D3000F08A8004F1420584F842202AE0642AB2
S214401D4001D0692AF6D121681A6811F0800F23D095
S214401D50111D1960136827E0732A00F0B48008D874
S214401D606F2A2AD0702AE5D10A6842F020020A601B
S214401D7003E0752A21D0782ADCD1782284F84520E1
S214401D806E4964E01A6801F14205111D1960136836
S214401D9084F842300123A3E011F0400F02F1040121
S214401DA01960D7D0B2F90030002B03DA2D225B42FF
S214401DB084F8432062490A2217E02068196810F028
S214401DC0800F03D0081D18600B6806E010F0400F27
S214401DD001F104001860F7D00B8859496F2A14BFE8
S214401DE00A220822002084F843006568A560002D7A
S214401DF0C0F29C80206820F004002060002B3FD179
S214401E00002D40F095807546082A0BD12368DA07E6
S214401E1008D5236962689A42DEBF302305F8013C44
S214401E2005F1FF35AEEB05032361CDF800803B4658
S214401E3003AA21463046FFF7EFFE013055D14FF05A
S214401E40FF3005B0BDE8F08381F845203C49226864
S214401E50186812F0800F00F104051D6001D0036879
S214401E6002E05506FBD50388D00744BF42F0200267
S214401E7022601BB9226822F0200222601022B1E7BD
S214401E807546B3FBF2F002FB1033CB5C05F8013D20
S214401E9003460028F5D1B7E708681A68496910F084
S214401EA0800F04D0101D18601368196007E010F00A
S214401EB0400F02F1040018601368F6D01980002322
S214401EC023617546B1E71A68111D19601568626886
S214401ED00021284600F0E4F808B1401B60606368C3
S214401EE02361002384F843309FE723692A46394616
S214401EF03046C0470130A2D023689B0707D500254F
S214401F0004F11909E368039A9B1A9D4205DBE068D1
S214401F10039B9842B8BF184693E701234A46394682
S214401F203046C04701308AD00135EBE7002BA7D1B9
S214401F300B7884F8423004F1420565E7A22240005F
S214401F409122400038B5064C0023054608462360DB
S214401F50FEF73CFB431C02D1236803B12B6038BD1F
S214401F60B400402010B50C46B1F90E1000F0EAF867
S214401F700028ABBF636DA3891B1823F48053ACBF06
S214401F806365A38110BD2DE9F0411F468B89DB05B3
S214401F9005460C46164605D502230022B1F90E101A
S214401FA000F068F8A389B4F90E1023F48053A38197
S214401FB032463B462846BDE8F04100F017B810B51B
S214401FC00C46B1F90E1000F055F8431CA38915BF16
S214401FD0606523F4805343F48053A38118BFA381E4
S214401FE010BDB1F90E1000F013B8000038B5074C1C
S214401FF0054608461146002222601A46FEF706FEAF
S214402000431C02D1236803B12B6038BDB400402086
S21440201038B5064C0023054608462360FEF7E8FA26
S214402020431C02D1236803B12B6038BDB400402066
S21440203038B5074C00230546084611462360FEF790
S214402040DAFA431C02D1236803B12B6038BD00BFC7
S214402050B400402038B5064C0023054608462360A9
S214402060FEF7CEFA431C02D1236803B12B6038BD7D
S214402070B400402038B5074C0546084611460022B5
S21440208022601A46FEF7BEFA431C02D1236803B10B
S2144020902B6038BDB4004020000000000000000067
S2144020A001F0FF01102A2BDB10F0070F08D010F8C4
S2144020B0013B013A8B422DD010F0070F42B3F6D1C8
S2144020C0F0B441EA012141EA014122F007047FF0E1
S2144020D000070023F0E80256083C85EA010586EA38
S2144020E0010685FA47F5A3FA87F586FA47F6A5FA74
S2144020F087F68EB9EED1F0BC01F0FF0102F0070280
S21440210032B110F8013B013A83EA010313B1F8D12A
S2144021100020704701387047002D06BF354603380B
S214402120073815F0010F07D1013015F4807F02BF44
S214402130013015F4C03F0130F0BC0138704700BF95
S2144021407047704738B5074C05460846114600228A
S21440215022601A46FEF748FD431C02D1236803B1AD
S2144021602B6038BDB40040202E2E2F68616C2F7334
S21440217072632F68616C5F696F2E63002E2E2F6826
S214402180616C2F7372632F68616C5F7573617274D4
S2144021905F73796E632E63002E2E2F68706C2F74DB
S2144021A0632F74635F6C6974652E630001000000E2
S2144021B0C0081000510003002E2E2F68706C2F753B
S2144021C0736172742F68706C5F75736172742E637E
S2144021D0000000004672657175656E6379206F6613
S2144021E02077617665666F726D3A20252E326620BE
S2144021F0487A20092044757479204379636C6520B9
S2144022006F662077617665666F726D3A20252E324E
S21440221066202525000000000D0000000400402038
S2144022200000000000000000000000000000000069
S2144022300000000000000000000000000000000059
S2144022400000000000000000000000000000000049
S2144022500000000000000000000000000000000039
S2144022600000000000000000000000000000000029
S2144022700000000000000000000000000000000019
S214402280232D302B2000686C4C006566674546471A
S214402290003031323334353637383941424344459D
S2144022A0460030313233343536373839616263640C
S2144022B065660000F8B500BFF8BC08BC9E4670478F
S2144022C08D014000F8B500BFF8BC08BC9E4670477C
S2084022D0690140001B
S2144022D404004020000000004022400060224000ED
S2144022E42022400000000000000000000000000023
S2144022F40000000000000000000000000000000095
S2144023040000000000000000000000000000000084
S2144023140000000000000000000000000000000074
S2144023240000000000000000000000000000000064
S2084023340000000060
S804400000BB
